{
  "contractName": "ERC20Token",
  "abi": [
    {
      "inputs": [
        {
          "internalType": "string",
          "name": "_name",
          "type": "string"
        },
        {
          "internalType": "string",
          "name": "_symbol",
          "type": "string"
        },
        {
          "internalType": "uint8",
          "name": "_decimals",
          "type": "uint8"
        },
        {
          "internalType": "uint256",
          "name": "_initialSupply",
          "type": "uint256"
        }
      ],
      "stateMutability": "nonpayable",
      "type": "constructor"
    },
    {
      "anonymous": false,
      "inputs": [
        {
          "indexed": true,
          "internalType": "address",
          "name": "tokenOwner",
          "type": "address"
        },
        {
          "indexed": true,
          "internalType": "address",
          "name": "spender",
          "type": "address"
        },
        {
          "indexed": false,
          "internalType": "uint256",
          "name": "tokens",
          "type": "uint256"
        }
      ],
      "name": "Approval",
      "type": "event"
    },
    {
      "anonymous": false,
      "inputs": [
        {
          "indexed": true,
          "internalType": "address",
          "name": "from",
          "type": "address"
        },
        {
          "indexed": true,
          "internalType": "address",
          "name": "to",
          "type": "address"
        },
        {
          "indexed": false,
          "internalType": "uint256",
          "name": "tokens",
          "type": "uint256"
        }
      ],
      "name": "Transfer",
      "type": "event"
    },
    {
      "inputs": [],
      "name": "_totalSupply",
      "outputs": [
        {
          "internalType": "uint256",
          "name": "",
          "type": "uint256"
        }
      ],
      "stateMutability": "view",
      "type": "function"
    },
    {
      "inputs": [
        {
          "internalType": "address",
          "name": "",
          "type": "address"
        },
        {
          "internalType": "address",
          "name": "",
          "type": "address"
        }
      ],
      "name": "allowed",
      "outputs": [
        {
          "internalType": "uint256",
          "name": "",
          "type": "uint256"
        }
      ],
      "stateMutability": "view",
      "type": "function"
    },
    {
      "inputs": [
        {
          "internalType": "address",
          "name": "",
          "type": "address"
        }
      ],
      "name": "balances",
      "outputs": [
        {
          "internalType": "uint256",
          "name": "",
          "type": "uint256"
        }
      ],
      "stateMutability": "view",
      "type": "function"
    },
    {
      "inputs": [],
      "name": "decimals",
      "outputs": [
        {
          "internalType": "uint8",
          "name": "",
          "type": "uint8"
        }
      ],
      "stateMutability": "view",
      "type": "function"
    },
    {
      "inputs": [],
      "name": "name",
      "outputs": [
        {
          "internalType": "string",
          "name": "",
          "type": "string"
        }
      ],
      "stateMutability": "view",
      "type": "function"
    },
    {
      "inputs": [],
      "name": "symbol",
      "outputs": [
        {
          "internalType": "string",
          "name": "",
          "type": "string"
        }
      ],
      "stateMutability": "view",
      "type": "function"
    },
    {
      "inputs": [
        {
          "internalType": "address",
          "name": "to",
          "type": "address"
        },
        {
          "internalType": "uint256",
          "name": "value",
          "type": "uint256"
        }
      ],
      "name": "transfer",
      "outputs": [
        {
          "internalType": "bool",
          "name": "",
          "type": "bool"
        }
      ],
      "stateMutability": "nonpayable",
      "type": "function"
    },
    {
      "inputs": [
        {
          "internalType": "address",
          "name": "from",
          "type": "address"
        },
        {
          "internalType": "address",
          "name": "to",
          "type": "address"
        },
        {
          "internalType": "uint256",
          "name": "value",
          "type": "uint256"
        }
      ],
      "name": "transferFrom",
      "outputs": [
        {
          "internalType": "bool",
          "name": "",
          "type": "bool"
        }
      ],
      "stateMutability": "nonpayable",
      "type": "function"
    },
    {
      "inputs": [
        {
          "internalType": "address",
          "name": "spender",
          "type": "address"
        },
        {
          "internalType": "uint256",
          "name": "value",
          "type": "uint256"
        }
      ],
      "name": "approve",
      "outputs": [
        {
          "internalType": "bool",
          "name": "",
          "type": "bool"
        }
      ],
      "stateMutability": "nonpayable",
      "type": "function"
    },
    {
      "inputs": [
        {
          "internalType": "address",
          "name": "owner",
          "type": "address"
        },
        {
          "internalType": "address",
          "name": "spender",
          "type": "address"
        }
      ],
      "name": "allowance",
      "outputs": [
        {
          "internalType": "uint256",
          "name": "",
          "type": "uint256"
        }
      ],
      "stateMutability": "view",
      "type": "function"
    },
    {
      "inputs": [
        {
          "internalType": "address",
          "name": "owner",
          "type": "address"
        }
      ],
      "name": "balanceOf",
      "outputs": [
        {
          "internalType": "uint256",
          "name": "",
          "type": "uint256"
        }
      ],
      "stateMutability": "view",
      "type": "function"
    },
    {
      "inputs": [],
      "name": "totalSupply",
      "outputs": [
        {
          "internalType": "uint256",
          "name": "",
          "type": "uint256"
        }
      ],
      "stateMutability": "view",
      "type": "function"
    }
  ],
  "bytecode": "0x60806040523480156200001157600080fd5b506040516200146c3803806200146c83398181016040528101906200003791906200022b565b83600090805190602001906200004f929190620000db565b50826001908051906020019062000068929190620000db565b5081600260006101000a81548160ff021916908360ff16021790555080600381905550600354600460003373ffffffffffffffffffffffffffffffffffffffff1673ffffffffffffffffffffffffffffffffffffffff168152602001908152602001600020819055505050505062000484565b828054620000e99062000375565b90600052602060002090601f0160209004810192826200010d576000855562000159565b82601f106200012857805160ff191683800117855562000159565b8280016001018555821562000159579182015b82811115620001585782518255916020019190600101906200013b565b5b5090506200016891906200016c565b5090565b5b80821115620001875760008160009055506001016200016d565b5090565b6000620001a26200019c84620002f2565b620002c9565b905082815260208101848484011115620001bb57600080fd5b620001c88482856200033f565b509392505050565b600082601f830112620001e257600080fd5b8151620001f48482602086016200018b565b91505092915050565b6000815190506200020e8162000450565b92915050565b60008151905062000225816200046a565b92915050565b600080600080608085870312156200024257600080fd5b600085015167ffffffffffffffff8111156200025d57600080fd5b6200026b87828801620001d0565b945050602085015167ffffffffffffffff8111156200028957600080fd5b6200029787828801620001d0565b9350506040620002aa8782880162000214565b9250506060620002bd87828801620001fd565b91505092959194509250565b6000620002d5620002e8565b9050620002e38282620003ab565b919050565b6000604051905090565b600067ffffffffffffffff82111562000310576200030f62000410565b5b6200031b826200043f565b9050602081019050919050565b6000819050919050565b600060ff82169050919050565b60005b838110156200035f57808201518184015260208101905062000342565b838111156200036f576000848401525b50505050565b600060028204905060018216806200038e57607f821691505b60208210811415620003a557620003a4620003e1565b5b50919050565b620003b6826200043f565b810181811067ffffffffffffffff82111715620003d857620003d762000410565b5b80604052505050565b7f4e487b7100000000000000000000000000000000000000000000000000000000600052602260045260246000fd5b7f4e487b7100000000000000000000000000000000000000000000000000000000600052604160045260246000fd5b6000601f19601f8301169050919050565b6200045b8162000328565b81146200046757600080fd5b50565b620004758162000332565b81146200048157600080fd5b50565b610fd880620004946000396000f3fe608060405234801561001057600080fd5b50600436106100b45760003560e01c80633eaaf86b116100715780633eaaf86b146101a35780635c658165146101c157806370a08231146101f157806395d89b4114610221578063a9059cbb1461023f578063dd62ed3e1461026f576100b4565b806306fdde03146100b9578063095ea7b3146100d757806318160ddd1461010757806323b872dd1461012557806327e235e314610155578063313ce56714610185575b600080fd5b6100c161029f565b6040516100ce9190610c72565b60405180910390f35b6100f160048036038101906100ec9190610b4c565b61032d565b6040516100fe9190610c57565b60405180910390f35b61010f61041f565b60405161011c9190610cf4565b60405180910390f35b61013f600480360381019061013a9190610afd565b610429565b60405161014c9190610c57565b60405180910390f35b61016f600480360381019061016a9190610a98565b61071b565b60405161017c9190610cf4565b60405180910390f35b61018d610733565b60405161019a9190610d0f565b60405180910390f35b6101ab610746565b6040516101b89190610cf4565b60405180910390f35b6101db60048036038101906101d69190610ac1565b61074c565b6040516101e89190610cf4565b60405180910390f35b61020b60048036038101906102069190610a98565b610771565b6040516102189190610cf4565b60405180910390f35b6102296107ba565b6040516102369190610c72565b60405180910390f35b61025960048036038101906102549190610b4c565b610848565b6040516102669190610c57565b60405180910390f35b61028960048036038101906102849190610ac1565b6109e7565b6040516102969190610cf4565b60405180910390f35b600080546102ac90610e58565b80601f01602080910402602001604051908101604052809291908181526020018280546102d890610e58565b80156103255780601f106102fa57610100808354040283529160200191610325565b820191906000526020600020905b81548152906001019060200180831161030857829003601f168201915b505050505081565b600081600560003373ffffffffffffffffffffffffffffffffffffffff1673ffffffffffffffffffffffffffffffffffffffff16815260200190815260200160002060008573ffffffffffffffffffffffffffffffffffffffff1673ffffffffffffffffffffffffffffffffffffffff168152602001908152602001600020819055508273ffffffffffffffffffffffffffffffffffffffff163373ffffffffffffffffffffffffffffffffffffffff167f8c5be1e5ebec7d5bd14f71427d1e84f3dd0314c0f7b2291e5b200ac8c7c3b9258460405161040d9190610cf4565b60405180910390a36001905092915050565b6000600354905090565b600081600560008673ffffffffffffffffffffffffffffffffffffffff1673ffffffffffffffffffffffffffffffffffffffff16815260200190815260200160002060003373ffffffffffffffffffffffffffffffffffffffff1673ffffffffffffffffffffffffffffffffffffffff1681526020019081526020016000205410156104ea576040517f08c379a00000000000000000000000000000000000000000000000000000000081526004016104e190610c94565b60405180910390fd5b81600460008673ffffffffffffffffffffffffffffffffffffffff1673ffffffffffffffffffffffffffffffffffffffff16815260200190815260200160002054101561056c576040517f08c379a000000000000000000000000000000000000000000000000000000000815260040161056390610cb4565b60405180910390fd5b81600560008673ffffffffffffffffffffffffffffffffffffffff1673ffffffffffffffffffffffffffffffffffffffff16815260200190815260200160002060003373ffffffffffffffffffffffffffffffffffffffff1673ffffffffffffffffffffffffffffffffffffffff16815260200190815260200160002060008282546105f89190610d9c565b9250508190555081600460008673ffffffffffffffffffffffffffffffffffffffff1673ffffffffffffffffffffffffffffffffffffffff168152602001908152602001600020600082825461064e9190610d9c565b9250508190555081600460008573ffffffffffffffffffffffffffffffffffffffff1673ffffffffffffffffffffffffffffffffffffffff16815260200190815260200160002060008282546106a49190610d46565b925050819055508273ffffffffffffffffffffffffffffffffffffffff168473ffffffffffffffffffffffffffffffffffffffff167fddf252ad1be2c89b69c2b068fc378daa952ba7f163c4a11628f55a4df523b3ef846040516107089190610cf4565b60405180910390a3600190509392505050565b60046020528060005260406000206000915090505481565b600260009054906101000a900460ff1681565b60035481565b6005602052816000526040600020602052806000526040600020600091509150505481565b6000600460008373ffffffffffffffffffffffffffffffffffffffff1673ffffffffffffffffffffffffffffffffffffffff168152602001908152602001600020549050919050565b600180546107c790610e58565b80601f01602080910402602001604051908101604052809291908181526020018280546107f390610e58565b80156108405780601f1061081557610100808354040283529160200191610840565b820191906000526020600020905b81548152906001019060200180831161082357829003601f168201915b505050505081565b600081600460003373ffffffffffffffffffffffffffffffffffffffff1673ffffffffffffffffffffffffffffffffffffffff1681526020019081526020016000205410156108cc576040517f08c379a00000000000000000000000000000000000000000000000000000000081526004016108c390610cd4565b60405180910390fd5b81600460003373ffffffffffffffffffffffffffffffffffffffff1673ffffffffffffffffffffffffffffffffffffffff168152602001908152602001600020600082825461091b9190610d9c565b9250508190555081600460008573ffffffffffffffffffffffffffffffffffffffff1673ffffffffffffffffffffffffffffffffffffffff16815260200190815260200160002060008282546109719190610d46565b925050819055508273ffffffffffffffffffffffffffffffffffffffff163373ffffffffffffffffffffffffffffffffffffffff167fddf252ad1be2c89b69c2b068fc378daa952ba7f163c4a11628f55a4df523b3ef846040516109d59190610cf4565b60405180910390a36001905092915050565b6000600560008473ffffffffffffffffffffffffffffffffffffffff1673ffffffffffffffffffffffffffffffffffffffff16815260200190815260200160002060008373ffffffffffffffffffffffffffffffffffffffff1673ffffffffffffffffffffffffffffffffffffffff16815260200190815260200160002054905092915050565b600081359050610a7d81610f74565b92915050565b600081359050610a9281610f8b565b92915050565b600060208284031215610aaa57600080fd5b6000610ab884828501610a6e565b91505092915050565b60008060408385031215610ad457600080fd5b6000610ae285828601610a6e565b9250506020610af385828601610a6e565b9150509250929050565b600080600060608486031215610b1257600080fd5b6000610b2086828701610a6e565b9350506020610b3186828701610a6e565b9250506040610b4286828701610a83565b9150509250925092565b60008060408385031215610b5f57600080fd5b6000610b6d85828601610a6e565b9250506020610b7e85828601610a83565b9150509250929050565b610b9181610de2565b82525050565b6000610ba282610d2a565b610bac8185610d35565b9350610bbc818560208601610e25565b610bc581610ee8565b840191505092915050565b6000610bdd601183610d35565b9150610be882610ef9565b602082019050919050565b6000610c00601583610d35565b9150610c0b82610f22565b602082019050919050565b6000610c23601683610d35565b9150610c2e82610f4b565b602082019050919050565b610c4281610e0e565b82525050565b610c5181610e18565b82525050565b6000602082019050610c6c6000830184610b88565b92915050565b60006020820190508181036000830152610c8c8184610b97565b905092915050565b60006020820190508181036000830152610cad81610bd0565b9050919050565b60006020820190508181036000830152610ccd81610bf3565b9050919050565b60006020820190508181036000830152610ced81610c16565b9050919050565b6000602082019050610d096000830184610c39565b92915050565b6000602082019050610d246000830184610c48565b92915050565b600081519050919050565b600082825260208201905092915050565b6000610d5182610e0e565b9150610d5c83610e0e565b9250827fffffffffffffffffffffffffffffffffffffffffffffffffffffffffffffffff03821115610d9157610d90610e8a565b5b828201905092915050565b6000610da782610e0e565b9150610db283610e0e565b925082821015610dc557610dc4610e8a565b5b828203905092915050565b6000610ddb82610dee565b9050919050565b60008115159050919050565b600073ffffffffffffffffffffffffffffffffffffffff82169050919050565b6000819050919050565b600060ff82169050919050565b60005b83811015610e43578082015181840152602081019050610e28565b83811115610e52576000848401525b50505050565b60006002820490506001821680610e7057607f821691505b60208210811415610e8457610e83610eb9565b5b50919050565b7f4e487b7100000000000000000000000000000000000000000000000000000000600052601160045260246000fd5b7f4e487b7100000000000000000000000000000000000000000000000000000000600052602260045260246000fd5b6000601f19601f8301169050919050565b7f616c6c6f77616e636520746f6f206c6f77000000000000000000000000000000600082015250565b7f746f6b656e2062616c616e636520746f6f206c6f770000000000000000000000600082015250565b7f6e6f742073756666696369656e742062616c616e636500000000000000000000600082015250565b610f7d81610dd0565b8114610f8857600080fd5b50565b610f9481610e0e565b8114610f9f57600080fd5b5056fea2646970667358221220d4b5ea3be3e52b9422f8852f8cb28825a98baab2e8c7900d6765b2c05b73c2ea64736f6c63430008010033",
  "immutableReferences": {},
  "source": "// SPDX-License-Identifier: MIT\r\npragma solidity >=0.4.22 <0.9.0;\r\ninterface ERC20Interface { function totalSupply() external view returns (uint256);\r\n\r\nfunction balanceOf(address tokenOwner)\r\n    external\r\n    view\r\n    returns (uint256 balance);\r\n\r\nfunction transfer(address to, uint256 tokens)\r\n    external\r\n    \r\n    returns (bool success);\r\n\r\nfunction allowance(address tokenOwner, address spender)\r\n    external\r\n    view\r\n    returns (uint256 remaining);\r\n\r\nfunction approve(address spender, uint256 tokens)\r\n    external\r\n    returns (bool success);\r\n\r\nfunction transferFrom(\r\n    address from,\r\n    address to,\r\n    uint256 tokens\r\n) external returns (bool success);\r\n\r\nevent Transfer(address indexed from, address indexed to, uint256 tokens);\r\nevent Approval(\r\n    address indexed tokenOwner,\r\n    address indexed spender,\r\n    uint256 tokens\r\n);\r\n}\r\n\r\ncontract ERC20Token is ERC20Interface { string public name; string public symbol; uint8 public decimals; uint256 public _totalSupply; mapping(address => uint256) public balances; mapping(address => mapping(address => uint256)) public allowed;\r\n\r\nconstructor(\r\n    string memory _name,\r\n    string memory _symbol,\r\n    uint8 _decimals,\r\n    uint256 _initialSupply\r\n) {\r\n    name = _name;\r\n    symbol = _symbol;\r\n    decimals = _decimals;\r\n    _totalSupply = _initialSupply;\r\n    balances[msg.sender] = _totalSupply;\r\n}\r\n\r\nfunction transfer(address to, uint256 value)\r\n    public\r\n    override\r\n    returns (bool)\r\n{\r\n    require(balances[msg.sender] >= value, \"not sufficient balance\");\r\n    balances[msg.sender] -= value;\r\n    balances[to] += value;\r\n    emit Transfer(msg.sender, to, value);\r\n    return true;\r\n}\r\n\r\nfunction transferFrom(\r\n    address from,\r\n    address to,\r\n    uint256 value\r\n) public override returns (bool) {\r\n    require(allowed[from][msg.sender] >= value, \"allowance too low\");\r\n    require(balances[from] >= value, \"token balance too low\");\r\n    allowed[from][msg.sender] -= value; //allowed[accounts[0]][accounts[1]]-100\r\n    balances[from] -= value;\r\n    balances[to] += value;\r\n    emit Transfer(from, to, value);\r\n    return true;\r\n}\r\n\r\nfunction approve(address spender, uint256 value)\r\n    public\r\n    override\r\n    returns (bool)\r\n{\r\n    allowed[msg.sender][spender] = value;\r\n    emit Approval(msg.sender, spender, value);\r\n    return true;\r\n}\r\n\r\nfunction allowance(address owner, address spender)\r\n    public\r\n    view\r\n    override\r\n    returns (uint256)\r\n{\r\n    return allowed[owner][spender];\r\n}\r\n\r\nfunction balanceOf(address owner) public view override returns (uint256) {\r\n    return balances[owner];\r\n}\r\n\r\nfunction totalSupply() public view override returns (uint256) {\r\n    return _totalSupply;\r\n}\r\n}",
  "sourcePath": "P:\\BLOCKCHAIN\\TESTING ERC 20 TOKEN\\contracts\\ERC20.sol",
  "compiler": {
    "name": "solc",
    "version": "0.8.1+commit.df193b15.Emscripten.clang"
  },
  "schemaVersion": "3.4.14",
  "updatedAt": "2023-07-08T10:29:34.988Z",
  "devdoc": {
    "kind": "dev",
    "methods": {},
    "version": 1
  },
  "userdoc": {
    "kind": "user",
    "methods": {},
    "version": 1
  }
}